{
  "contractName": "KaleidoKards",
  "abi": [
    {
      "constant": true,
      "inputs": [],
      "name": "packSize",
      "outputs": [
        {
          "name": "",
          "type": "uint8"
        }
      ],
      "payable": false,
      "stateMutability": "view",
      "type": "function"
    },
    {
      "constant": true,
      "inputs": [],
      "name": "issuedStandardKards",
      "outputs": [
        {
          "name": "",
          "type": "uint8"
        }
      ],
      "payable": false,
      "stateMutability": "view",
      "type": "function"
    },
    {
      "constant": true,
      "inputs": [],
      "name": "issuedPlatinumKards",
      "outputs": [
        {
          "name": "",
          "type": "uint8"
        }
      ],
      "payable": false,
      "stateMutability": "view",
      "type": "function"
    },
    {
      "constant": true,
      "inputs": [],
      "name": "platinumKardAmount",
      "outputs": [
        {
          "name": "",
          "type": "uint8"
        }
      ],
      "payable": false,
      "stateMutability": "view",
      "type": "function"
    },
    {
      "constant": true,
      "inputs": [],
      "name": "maxShape",
      "outputs": [
        {
          "name": "",
          "type": "uint8"
        }
      ],
      "payable": false,
      "stateMutability": "view",
      "type": "function"
    },
    {
      "constant": true,
      "inputs": [],
      "name": "maxEffect",
      "outputs": [
        {
          "name": "",
          "type": "uint8"
        }
      ],
      "payable": false,
      "stateMutability": "view",
      "type": "function"
    },
    {
      "constant": true,
      "inputs": [
        {
          "name": "",
          "type": "uint256"
        }
      ],
      "name": "kardOwner",
      "outputs": [
        {
          "name": "",
          "type": "address"
        }
      ],
      "payable": false,
      "stateMutability": "view",
      "type": "function"
    },
    {
      "constant": true,
      "inputs": [],
      "name": "contractOwner",
      "outputs": [
        {
          "name": "",
          "type": "address"
        }
      ],
      "payable": false,
      "stateMutability": "view",
      "type": "function"
    },
    {
      "constant": true,
      "inputs": [],
      "name": "maxColor",
      "outputs": [
        {
          "name": "",
          "type": "uint8"
        }
      ],
      "payable": false,
      "stateMutability": "view",
      "type": "function"
    },
    {
      "constant": true,
      "inputs": [],
      "name": "standardPackPrice",
      "outputs": [
        {
          "name": "",
          "type": "uint256"
        }
      ],
      "payable": false,
      "stateMutability": "view",
      "type": "function"
    },
    {
      "constant": true,
      "inputs": [],
      "name": "platinumPackPrice",
      "outputs": [
        {
          "name": "",
          "type": "uint256"
        }
      ],
      "payable": false,
      "stateMutability": "view",
      "type": "function"
    },
    {
      "constant": true,
      "inputs": [],
      "name": "standardKardAmount",
      "outputs": [
        {
          "name": "",
          "type": "uint8"
        }
      ],
      "payable": false,
      "stateMutability": "view",
      "type": "function"
    },
    {
      "inputs": [],
      "payable": false,
      "stateMutability": "nonpayable",
      "type": "constructor"
    },
    {
      "constant": false,
      "inputs": [],
      "name": "buyStandardPack",
      "outputs": [],
      "payable": true,
      "stateMutability": "payable",
      "type": "function"
    },
    {
      "constant": false,
      "inputs": [],
      "name": "buyPlatinumPack",
      "outputs": [],
      "payable": true,
      "stateMutability": "payable",
      "type": "function"
    },
    {
      "constant": false,
      "inputs": [
        {
          "name": "to",
          "type": "address"
        },
        {
          "name": "kardId",
          "type": "uint256"
        }
      ],
      "name": "transfer",
      "outputs": [],
      "payable": false,
      "stateMutability": "nonpayable",
      "type": "function"
    },
    {
      "constant": true,
      "inputs": [
        {
          "name": "kardId",
          "type": "uint256"
        }
      ],
      "name": "getKard",
      "outputs": [
        {
          "name": "color",
          "type": "uint256"
        },
        {
          "name": "shape",
          "type": "uint256"
        },
        {
          "name": "effect",
          "type": "uint256"
        }
      ],
      "payable": false,
      "stateMutability": "pure",
      "type": "function"
    },
    {
      "constant": true,
      "inputs": [
        {
          "name": "owner",
          "type": "address"
        }
      ],
      "name": "getOwnedKards",
      "outputs": [
        {
          "name": "cards",
          "type": "uint256[]"
        }
      ],
      "payable": false,
      "stateMutability": "view",
      "type": "function"
    },
    {
      "constant": false,
      "inputs": [
        {
          "name": "amount",
          "type": "uint256"
        }
      ],
      "name": "withdraw",
      "outputs": [],
      "payable": false,
      "stateMutability": "nonpayable",
      "type": "function"
    }
  ],
  "bytecode": "0x608060405260008060006101000a81548160ff021916908360ff16021790555060008060016101000a81548160ff021916908360ff16021790555034801561004657600080fd5b50600073ffffffffffffffffffffffffffffffffffffffff163373ffffffffffffffffffffffffffffffffffffffff161415151561008357600080fd5b33600060026101000a81548173ffffffffffffffffffffffffffffffffffffffff021916908373ffffffffffffffffffffffffffffffffffffffff16021790555061149d806100d36000396000f3006080604052600436106100fc576000357c0100000000000000000000000000000000000000000000000000000000900463ffffffff16806306a628d4146101015780631477985c146101325780631bed19191461013c5780632e1a7d4d1461018b5780634201227a146101b857806347730a25146101e95780635a5c99f21461021a5780636dddac5d146102b2578063735cd185146102e357806376d6fdcb14610314578063a9059cbb14610345578063ad9dce6e14610392578063ce606ee0146103ff578063d938000514610456578063dc7ed46914610487578063e8a25baf146104b2578063eb858c7d146104dd578063f4d57e8f1461050e575b600080fd5b34801561010d57600080fd5b50610116610518565b604051808260ff1660ff16815260200191505060405180910390f35b61013a61051d565b005b34801561014857600080fd5b5061016760048036038101908080359060200190929190505050610733565b60405180848152602001838152602001828152602001935050505060405180910390f35b34801561019757600080fd5b506101b6600480360381019080803590602001909291905050506107a2565b005b3480156101c457600080fd5b506101cd610890565b604051808260ff1660ff16815260200191505060405180910390f35b3480156101f557600080fd5b506101fe6108a2565b604051808260ff1660ff16815260200191505060405180910390f35b34801561022657600080fd5b5061025b600480360381019080803573ffffffffffffffffffffffffffffffffffffffff1690602001909291905050506108b5565b6040518080602001828103825283818151815260200191508051906020019060200280838360005b8381101561029e578082015181840152602081019050610283565b505050509050019250505060405180910390f35b3480156102be57600080fd5b506102c761094c565b604051808260ff1660ff16815260200191505060405180910390f35b3480156102ef57600080fd5b506102f8610951565b604051808260ff1660ff16815260200191505060405180910390f35b34801561032057600080fd5b50610329610956565b604051808260ff1660ff16815260200191505060405180910390f35b34801561035157600080fd5b50610390600480360381019080803573ffffffffffffffffffffffffffffffffffffffff1690602001909291908035906020019092919050505061095b565b005b34801561039e57600080fd5b506103bd6004803603810190808035906020019092919050505061096a565b604051808273ffffffffffffffffffffffffffffffffffffffff1673ffffffffffffffffffffffffffffffffffffffff16815260200191505060405180910390f35b34801561040b57600080fd5b5061041461099d565b604051808273ffffffffffffffffffffffffffffffffffffffff1673ffffffffffffffffffffffffffffffffffffffff16815260200191505060405180910390f35b34801561046257600080fd5b5061046b6109c3565b604051808260ff1660ff16815260200191505060405180910390f35b34801561049357600080fd5b5061049c6109c8565b6040518082815260200191505060405180910390f35b3480156104be57600080fd5b506104c76109d5565b6040518082815260200191505060405180910390f35b3480156104e957600080fd5b506104f26109e2565b604051808260ff1660ff16815260200191505060405180910390f35b6105166109e7565b005b600381565b600080600073ffffffffffffffffffffffffffffffffffffffff163373ffffffffffffffffffffffffffffffffffffffff161415151561055c57600080fd5b68056bc75e2d6310000034141515610602576040517f08c379a00000000000000000000000000000000000000000000000000000000081526004018080602001828103825260278152602001807f4e6f7420656e6f75676820657468657220746f20627579206120706c6174696e81526020017f756d207061636b0000000000000000000000000000000000000000000000000081525060400191505060405180910390fd5b600360640360ff16600060019054906101000a900460ff1660ff161015156106b8576040517f08c379a00000000000000000000000000000000000000000000000000000000081526004018080602001828103825260248152602001807f4e6f206d6f726520506c6174696e756d204b61726473206c65667420746f206981526020017f737375650000000000000000000000000000000000000000000000000000000081525060400191505060405180910390fd5b60009150600090505b600360ff168160ff16101561072f57601960ff166106e28342016064610bf6565b0191506106ef3383610c94565b506000600181819054906101000a900460ff168092919060010191906101000a81548160ff021916908360ff1602179055505080806001019150506106c1565b5050565b6000806000606460190160ff168410151561074d57600080fd5b60198481151561075957fe5b049050600560198581151561076a57fe5b0681151561077457fe5b049250600560198581151561078557fe5b0681151561078f57fe5b0691508282829250925092509193909250565b600060029054906101000a900473ffffffffffffffffffffffffffffffffffffffff1673ffffffffffffffffffffffffffffffffffffffff163373ffffffffffffffffffffffffffffffffffffffff161415156107fe57600080fd5b3073ffffffffffffffffffffffffffffffffffffffff1631811115151561082457600080fd5b600060029054906101000a900473ffffffffffffffffffffffffffffffffffffffff1673ffffffffffffffffffffffffffffffffffffffff166108fc829081150290604051600060405180830381858888f1935050505015801561088c573d6000803e3d6000fd5b5050565b6000809054906101000a900460ff1681565b600060019054906101000a900460ff1681565b6060600260008373ffffffffffffffffffffffffffffffffffffffff1673ffffffffffffffffffffffffffffffffffffffff16815260200190815260200160002080548060200260200160405190810160405280929190818152602001828054801561094057602002820191906000526020600020905b81548152602001906001019080831161092c575b50505050509050919050565b606481565b600481565b600481565b610966338383610e05565b5050565b60016020528060005260406000206000915054906101000a900473ffffffffffffffffffffffffffffffffffffffff1681565b600060029054906101000a900473ffffffffffffffffffffffffffffffffffffffff1681565b600481565b68015af1d78b58c4000081565b68056bc75e2d6310000081565b601981565b600080600073ffffffffffffffffffffffffffffffffffffffff163373ffffffffffffffffffffffffffffffffffffffff1614151515610a2657600080fd5b68015af1d78b58c4000034141515610acc576040517f08c379a00000000000000000000000000000000000000000000000000000000081526004018080602001828103825260278152602001807f4e6f7420656e6f75676820657468657220746f206275792061207374616e646181526020017f7264207061636b0000000000000000000000000000000000000000000000000081525060400191505060405180910390fd5b600360190360ff166000809054906101000a900460ff1660ff1611151515610b82576040517f08c379a00000000000000000000000000000000000000000000000000000000081526004018080602001828103825260248152602001807f4e6f206d6f7265205374616e64617264204b61726473206c65667420746f206981526020017f737375650000000000000000000000000000000000000000000000000000000081525060400191505060405180910390fd5b60009150600090505b600360ff168160ff161015610bf257610ba78242016019610bf6565b9150610bb3338361125f565b5060008081819054906101000a900460ff168092919060010191906101000a81548160ff021916908360ff160217905550508080600101915050610b8b565b5050565b60008160ff1683604051602001808281526020019150506040516020818303038152906040526040518082805190602001908083835b602083101515610c515780518252602082019150602081019050602083039250610c2c565b6001836020036101000a038019825116818451168082178552505050505050905001915050604051809103902060019004811515610c8b57fe5b06905092915050565b6000601960ff168210151515610ca957600080fd5b606460190160ff1682101515610cbe57600080fd5b60006001600084815260200190815260200160002060009054906101000a900473ffffffffffffffffffffffffffffffffffffffff1673ffffffffffffffffffffffffffffffffffffffff161415610dd357600260008473ffffffffffffffffffffffffffffffffffffffff1673ffffffffffffffffffffffffffffffffffffffff168152602001908152602001600020829080600181540180825580915050906001820390600052602060002001600090919290919091505550826001600084815260200190815260200160002060006101000a81548173ffffffffffffffffffffffffffffffffffffffff021916908373ffffffffffffffffffffffffffffffffffffffff160217905550819050610dff565b8180600101925050606460190160ff16821415610df257601960ff1691505b610dfc8383610c94565b90505b92915050565b600080600073ffffffffffffffffffffffffffffffffffffffff168573ffffffffffffffffffffffffffffffffffffffff1614158015610e7157503073ffffffffffffffffffffffffffffffffffffffff168573ffffffffffffffffffffffffffffffffffffffff1614155b1515610e7c57600080fd5b600073ffffffffffffffffffffffffffffffffffffffff168473ffffffffffffffffffffffffffffffffffffffff1614158015610ee557503073ffffffffffffffffffffffffffffffffffffffff168473ffffffffffffffffffffffffffffffffffffffff1614155b1515610ef057600080fd5b610efa85846113b4565b1515610f6e576040517f08c379a00000000000000000000000000000000000000000000000000000000081526004018080602001828103825260188152602001807f53656e64657220646f6573206e6f74206f776e204b617264000000000000000081525060200191505060405180910390fd5b600260008673ffffffffffffffffffffffffffffffffffffffff1673ffffffffffffffffffffffffffffffffffffffff168152602001908152602001600020805490509150600090505b818160ff16101561119d5782600260008773ffffffffffffffffffffffffffffffffffffffff1673ffffffffffffffffffffffffffffffffffffffff1681526020019081526020016000208260ff1681548110151561101357fe5b9060005260206000200154141561119057600260008673ffffffffffffffffffffffffffffffffffffffff1673ffffffffffffffffffffffffffffffffffffffff1681526020019081526020016000206001830381548110151561107357fe5b9060005260206000200154600260008773ffffffffffffffffffffffffffffffffffffffff1673ffffffffffffffffffffffffffffffffffffffff1681526020019081526020016000208260ff168154811015156110cd57fe5b9060005260206000200181905550600260008673ffffffffffffffffffffffffffffffffffffffff1673ffffffffffffffffffffffffffffffffffffffff1681526020019081526020016000206001830381548110151561112a57fe5b9060005260206000200160009055600260008673ffffffffffffffffffffffffffffffffffffffff1673ffffffffffffffffffffffffffffffffffffffff16815260200190815260200160002080548091906001900361118a9190611420565b5061119d565b8080600101915050610fb8565b836001600085815260200190815260200160002060006101000a81548173ffffffffffffffffffffffffffffffffffffffff021916908373ffffffffffffffffffffffffffffffffffffffff160217905550600260008573ffffffffffffffffffffffffffffffffffffffff1673ffffffffffffffffffffffffffffffffffffffff1681526020019081526020016000208390806001815401808255809150509060018203906000526020600020016000909192909190915055505050505050565b6000601960ff168210151561127357600080fd5b60006001600084815260200190815260200160002060009054906101000a900473ffffffffffffffffffffffffffffffffffffffff1673ffffffffffffffffffffffffffffffffffffffff16141561138857600260008473ffffffffffffffffffffffffffffffffffffffff1673ffffffffffffffffffffffffffffffffffffffff168152602001908152602001600020829080600181540180825580915050906001820390600052602060002001600090919290919091505550826001600084815260200190815260200160002060006101000a81548173ffffffffffffffffffffffffffffffffffffffff021916908373ffffffffffffffffffffffffffffffffffffffff1602179055508190506113ae565b8180600101925050601960ff168214156113a157600091505b6113ab838361125f565b90505b92915050565b60008273ffffffffffffffffffffffffffffffffffffffff166001600084815260200190815260200160002060009054906101000a900473ffffffffffffffffffffffffffffffffffffffff1673ffffffffffffffffffffffffffffffffffffffff1614905092915050565b81548183558181111561144757818360005260206000209182019101611446919061144c565b5b505050565b61146e91905b8082111561146a576000816000905550600101611452565b5090565b905600a165627a7a72305820a2f8bac090ff19edaa92dfef13b9205fb1b3332d8dba6bb11307b10afcc18bff0029",
  "source": "pragma solidity ^0.4.24;\r\n\r\n\r\ncontract KaleidoKards {\r\n\r\n\r\n    /*** Constants ***/\r\n    \r\n    //Number of Kards\r\n    uint8 constant public standardKardAmount = 25;\r\n    uint8 constant public platinumKardAmount = 100;\r\n\r\n    // Max values of Kard attributes 0-4\r\n    uint8 constant public maxColor  = 4;\r\n    uint8 constant public maxShape  = 4;\r\n    uint8 constant public maxEffect = 4;\r\n\r\n    // TODO: change this after development\r\n    // Prices for buying a pack of Kards from the contract\r\n    uint256 constant public standardPackPrice = 25 ether;\r\n    uint256 constant public platinumPackPrice = 100 ether;\r\n\r\n    // Number of Kards in a pack\r\n    uint8 constant public packSize = 3;\r\n\r\n\r\n    /*** Ownership ***/\r\n\r\n    // Keeping track of how many Kards are issued so far\r\n    uint8 public issuedStandardKards = 0;\r\n    uint8 public issuedPlatinumKards = 0;\r\n\r\n    // Address of the contract/store owner selling Kards\r\n    address public contractOwner;\r\n\r\n    // Mapping from KardId to the Kard Owner's address\r\n    mapping(uint256 => address) public kardOwner;\r\n\r\n    // Mapping of address to array of owned Kards\r\n    mapping(address => uint256[]) internal ownedKards;\r\n\r\n    \r\n    /**\r\n     * Constructor function\r\n     *\r\n     */\r\n    constructor() public {\r\n        require(msg.sender != address(0));\r\n        contractOwner = msg.sender;\r\n    }\r\n\r\n    /**\r\n     * Function for buying a standard pack of kards (kards with no effect)\r\n     * Checks that there is enough kards left to buy, randomly selects the number\r\n     * of kards in a pack, and assigns them to the buyer.\r\n     */\r\n    function buyStandardPack() external payable {\r\n        require(msg.sender != address(0));\r\n        require(msg.value == standardPackPrice, \"Not enough ether to buy a standard pack\");\r\n        require(issuedStandardKards <= (standardKardAmount - packSize), \"No more Standard Kards left to issue\");\r\n\r\n        uint256 randomIndex = 0;\r\n\r\n        for (uint8 i = 0; i < packSize; i++) {\r\n            // see documentation on random function\r\n            randomIndex = random(block.timestamp + randomIndex, standardKardAmount);\r\n            issueStandardKard(msg.sender, randomIndex);\r\n            issuedStandardKards++;\r\n        }\r\n    }\r\n\r\n    /**\r\n     * Function for buying a platinum pack of kards (kards with an effect)\r\n     * Checks that there is enough kards left to buy, randomly selects the number\r\n     * of kards in a pack, and assigns them to the buyer.\r\n     */\r\n    function buyPlatinumPack() external payable {\r\n        require(msg.sender != address(0));\r\n        require(msg.value == platinumPackPrice, \"Not enough ether to buy a platinum pack\");\r\n        require(issuedPlatinumKards < (platinumKardAmount - packSize), \"No more Platinum Kards left to issue\");\r\n\r\n        uint256 randomIndex = 0;\r\n\r\n        for (uint8 i = 0; i < packSize; i++) {\r\n            randomIndex = random(block.timestamp + randomIndex, platinumKardAmount) + standardKardAmount;\r\n            issuePlatinumKard(msg.sender, randomIndex);\r\n            issuedPlatinumKards++;\r\n        }\r\n    }\r\n\r\n    /**\r\n     *  External transfer function, used for trading amongst users\r\n     */\r\n    function transfer(address to, uint256 kardId) external {\r\n        _transfer(msg.sender, to, kardId);\r\n    }\r\n\r\n    function getKard(uint256 kardId) public pure returns (uint256 color, uint256 shape, uint256 effect) {\r\n        require(kardId < (standardKardAmount + platinumKardAmount));\r\n        effect = kardId / 25;\r\n        color = (kardId % 25) / 5;\r\n        shape = (kardId % 25) % 5;\r\n\r\n        return (color, shape, effect);\r\n    }\r\n\r\n    /**\r\n     * Returns an array of kardId's that the owner owns\r\n     */\r\n    function getOwnedKards(address owner) public view returns (uint256[] cards){\r\n        return ownedKards[owner];\r\n    }\r\n\r\n    /**\r\n     * Withdrawal function so the contract owner can withdraw funds from the contract.\r\n     * This is here to show that the contract holds the ether used to buy the kards\r\n     * until the contract owner withdrawals the ether.\r\n     */\r\n    function withdraw(uint amount)\r\n        public\r\n    {\r\n        require(msg.sender == contractOwner);\r\n        require(amount <= address(this).balance);\r\n        contractOwner.transfer(amount);\r\n    }\r\n\r\n    /**\r\n     * Internal transfer function. Checks the ownership of the kardId, removes the\r\n     * kard from the current owners array of owned kardId's, and assigns the kard\r\n     * to it's new owner.\r\n     */\r\n    function _transfer(address from, address to, uint256 kardId)\r\n        internal\r\n    {\r\n        require(from != address(0) && from != address(this));\r\n        require(to != address(0) && to != address(this));\r\n        require(owns(from, kardId), \"Sender does not own Kard\");\r\n\r\n        // Remove Kard from 'from' address in ownedKards\r\n        uint256 fromNumCards = ownedKards[from].length;\r\n        for (uint8 i = 0; i < fromNumCards; i++) {\r\n            if (ownedKards[from][i] == kardId) {\r\n                // move the last Kard to this spot\r\n                ownedKards[from][i] = ownedKards[from][fromNumCards - 1];\r\n                // delete last element in array and decrement its length\r\n                delete ownedKards[from][fromNumCards - 1];\r\n                ownedKards[from].length--;\r\n                break;\r\n            }\r\n        }\r\n\r\n        // Assign Kard to new owner\r\n        kardOwner[kardId] = to;\r\n        ownedKards[to].push(kardId);\r\n    }\r\n\r\n    /**\r\n     * Internal function used to issue new Kards from the store.\r\n     * Given a randomIndex (or kardId), this will check if the kardId is already owned\r\n     * If it is, then it will go to the next kard in the list, and repeat until\r\n     * there is a kard with no owner\r\n     */\r\n    function issueStandardKard(address to, uint256 randomIndex)\r\n        internal\r\n        returns (uint256)\r\n    {\r\n        require(randomIndex < standardKardAmount);\r\n        // If no one owns the Kard, then it can be added to a pack\r\n        if (kardOwner[randomIndex] == 0)  {\r\n\r\n            ownedKards[to].push(randomIndex);\r\n            kardOwner[randomIndex] = to;\r\n            return randomIndex;\r\n        } else {\r\n            // Someone else already owns this Kard at this index so increment it and try again\r\n            // We increment here because as the number of available kards decreases, the chance\r\n            // of randomly selecting an available kard substantially decreases.\r\n            randomIndex++;\r\n            // Need to do some bounds checking so we don't issue the wrong card or overflow\r\n            // So loop back to the beginning index of this Kard type\r\n            if (randomIndex == standardKardAmount) {\r\n                randomIndex = 0;\r\n            }\r\n            return issueStandardKard(to, randomIndex);\r\n        }\r\n    }\r\n\r\n    /**\r\n     * Same functionality as above function, just with different bounds for platinum.\r\n     */\r\n    function issuePlatinumKard(address to, uint256 randomIndex)\r\n        internal\r\n        returns (uint256)\r\n    {\r\n        require(randomIndex >= standardKardAmount);\r\n        require(randomIndex < (standardKardAmount + platinumKardAmount));\r\n        // If no one owns the Kard, then it can be added to a pack\r\n        if (kardOwner[randomIndex] == 0)  {\r\n\r\n            ownedKards[to].push(randomIndex);\r\n            kardOwner[randomIndex] = to;\r\n            return randomIndex;\r\n        } else {\r\n            // Someone else already owns this Kard at this index so increment it and try again\r\n            randomIndex++;\r\n            // Need to do some bounds checking so we don't issue the wrong card or overflow\r\n            // So loop back to the beginning index of this Kard type\r\n            if (randomIndex == (standardKardAmount + platinumKardAmount)) {\r\n                randomIndex = standardKardAmount;\r\n            }\r\n            return issuePlatinumKard(to, randomIndex);\r\n        }\r\n    }\r\n\r\n    /**\r\n     * Internal function for checking ownership.\r\n     * Returns true if the address at the kardId index is the same as the address passed in\r\n     */\r\n    function owns(address claimant, uint256 kardId)\r\n        internal\r\n        view\r\n        returns (bool)\r\n    {\r\n        return kardOwner[kardId] == claimant;\r\n    }\r\n\r\n    //\r\n    // This relies on trusting the mining node.\r\n    //\r\n\r\n    /**\r\n     * Random function adapted from src: https://medium.com/promentol/lottery-smart-contract-can-we-generate-random-numbers-in-solidity-4f586a152b27\r\n     * This relies on trusting the transaction mining node. While this function is NOT safe\r\n     * for PUBLIC blockchains, in a permissioned blockchain system, malicious miners can have\r\n     * their node removed from the network.\r\n     */\r\n    function random(uint256 seed, uint8 max) internal pure returns (uint256) {\r\n        // by default this will return a number between [0, max-1]\r\n        return uint256(keccak256(abi.encodePacked(seed)))%uint256(max);\r\n    }\r\n\r\n}\r\n",
  "sourcePath": "C:\\Users\\dylan\\Documents\\Workspace\\KaleidoKards\\contracts\\KaleidoKards.sol",
  "compiler": {
    "name": "solc",
    "version": "0.4.24+commit.e67f0147.Emscripten.clang"
  },
  "schemaVersion": "2.0.0",
  "updatedAt": "2018-07-10T20:38:18.673Z"
}